{
  "_format": "hh-sol-artifact-1",
  "contractName": "StorageMarketplace",
  "sourceName": "contracts/StorageMarketplace.sol",
  "abi": [
    {
      "inputs": [],
      "stateMutability": "nonpayable",
      "type": "constructor"
    },
    {
      "inputs": [],
      "name": "owner",
      "outputs": [
        {
          "internalType": "address",
          "name": "",
          "type": "address"
        }
      ],
      "stateMutability": "view",
      "type": "function"
    },
    {
      "inputs": [
        {
          "internalType": "address",
          "name": "",
          "type": "address"
        }
      ],
      "name": "providers",
      "outputs": [
        {
          "internalType": "uint256",
          "name": "stake",
          "type": "uint256"
        },
        {
          "internalType": "uint256",
          "name": "earned",
          "type": "uint256"
        },
        {
          "internalType": "bool",
          "name": "active",
          "type": "bool"
        }
      ],
      "stateMutability": "view",
      "type": "function"
    },
    {
      "inputs": [],
      "name": "registerProvider",
      "outputs": [],
      "stateMutability": "payable",
      "type": "function"
    },
    {
      "inputs": [
        {
          "internalType": "address",
          "name": "provider",
          "type": "address"
        },
        {
          "internalType": "uint256",
          "name": "amount",
          "type": "uint256"
        }
      ],
      "name": "rewardProvider",
      "outputs": [],
      "stateMutability": "nonpayable",
      "type": "function"
    },
    {
      "inputs": [],
      "name": "withdrawEarnings",
      "outputs": [],
      "stateMutability": "nonpayable",
      "type": "function"
    }
  ],
  "bytecode": "0x6080604052348015600f57600080fd5b5033600160006101000a81548173ffffffffffffffffffffffffffffffffffffffff021916908373ffffffffffffffffffffffffffffffffffffffff160217905550610717806100606000396000f3fe60806040526004361061004a5760003560e01c80630787bc271461004f5780632307e7a61461008e5780638da5cb5b146100b7578063b73c6ce9146100e2578063f769c6d0146100f9575b600080fd5b34801561005b57600080fd5b5061007660048036038101906100719190610467565b610103565b604051610085939291906104c8565b60405180910390f35b34801561009a57600080fd5b506100b560048036038101906100b0919061052b565b61013a565b005b3480156100c357600080fd5b506100cc610226565b6040516100d9919061057a565b60405180910390f35b3480156100ee57600080fd5b506100f761024c565b005b610101610323565b005b60006020528060005260406000206000915090508060000154908060010154908060020160009054906101000a900460ff16905083565b600160009054906101000a900473ffffffffffffffffffffffffffffffffffffffff1673ffffffffffffffffffffffffffffffffffffffff163373ffffffffffffffffffffffffffffffffffffffff16146101ca576040517f08c379a00000000000000000000000000000000000000000000000000000000081526004016101c1906105f2565b60405180910390fd5b806000808473ffffffffffffffffffffffffffffffffffffffff1673ffffffffffffffffffffffffffffffffffffffff168152602001908152602001600020600101600082825461021b9190610641565b925050819055505050565b600160009054906101000a900473ffffffffffffffffffffffffffffffffffffffff1681565b60008060003373ffffffffffffffffffffffffffffffffffffffff1673ffffffffffffffffffffffffffffffffffffffff16815260200190815260200160002060010154905060008060003373ffffffffffffffffffffffffffffffffffffffff1673ffffffffffffffffffffffffffffffffffffffff168152602001908152602001600020600101819055503373ffffffffffffffffffffffffffffffffffffffff166108fc829081150290604051600060405180830381858888f1935050505015801561031f573d6000803e3d6000fd5b5050565b67016345785d8a000034101561036e576040517f08c379a0000000000000000000000000000000000000000000000000000000008152600401610365906106c1565b60405180910390fd5b604051806060016040528034815260200160008152602001600115158152506000803373ffffffffffffffffffffffffffffffffffffffff1673ffffffffffffffffffffffffffffffffffffffff168152602001908152602001600020600082015181600001556020820151816001015560408201518160020160006101000a81548160ff021916908315150217905550905050565b600080fd5b600073ffffffffffffffffffffffffffffffffffffffff82169050919050565b600061043482610409565b9050919050565b61044481610429565b811461044f57600080fd5b50565b6000813590506104618161043b565b92915050565b60006020828403121561047d5761047c610404565b5b600061048b84828501610452565b91505092915050565b6000819050919050565b6104a781610494565b82525050565b60008115159050919050565b6104c2816104ad565b82525050565b60006060820190506104dd600083018661049e565b6104ea602083018561049e565b6104f760408301846104b9565b949350505050565b61050881610494565b811461051357600080fd5b50565b600081359050610525816104ff565b92915050565b6000806040838503121561054257610541610404565b5b600061055085828601610452565b925050602061056185828601610516565b9150509250929050565b61057481610429565b82525050565b600060208201905061058f600083018461056b565b92915050565b600082825260208201905092915050565b7f4f6e6c79206f776e65722063616e207265776172640000000000000000000000600082015250565b60006105dc601583610595565b91506105e7826105a6565b602082019050919050565b6000602082019050818103600083015261060b816105cf565b9050919050565b7f4e487b7100000000000000000000000000000000000000000000000000000000600052601160045260246000fd5b600061064c82610494565b915061065783610494565b925082820190508082111561066f5761066e610612565b5b92915050565b7f5374616b65206174206c6561737420302e312045544800000000000000000000600082015250565b60006106ab601683610595565b91506106b682610675565b602082019050919050565b600060208201905081810360008301526106da8161069e565b905091905056fea2646970667358221220a9adb2f4ae88ef066a98543645602c9f2be562b38592598189a62f6222c912aa64736f6c634300081c0033",
  "linkReferences": {},
  "deployedLinkReferences": {}
}